:020000040800F2
:1000000000000220792C00089509000897090008D3
:10001000990900089B0900089D09000800000000DC
:100020000000000000000000000000009F09000820
:10003000A109000800000000A3090008A5090008A4
:10004000C92C0008C92C0008C92C0008C92C0008BC
:10005000C92C0008C92C0008C92C0008C92C0008AC
:10006000C92C0008C92C0008C92C0008C92C00089C
:10007000C92C0008C92C0008C92C0008C92C00088C
:10008000C92C0008C92C0008C92C0008C92C00087C
:10009000C92C0008C92C0008C92C0008C92C00086C
:1000A000C92C0008C92C0008C92C0008C92C00085C
:1000B000C92C0008C92C0008C92C0008C92C00084C
:1000C000C92C0008C92C0008C92C0008C92C00083C
:1000D000C92C0008C92C0008C92C0008C92C00082C
:1000E000C92C0008C92C000800000000C92C000819
:1000F000C92C0008C92C0008C92C0008C92C00080C
:10010000C92C0008C92C0008C92C0008C92C0008FB
:10011000C92C0008C92C0008C92C0008C92C0008EB
:10012000C92C0008C92C0008C92C0008C92C0008DB
:10013000C92C0008C92C0008C92C0008C92C0008CB
:1001400000000000000000000000000000000000AF
:10015000C92C0008C92C0008C92C0008C92C0008AB
:10016000C92C0008C92C0008C92C0008C92C00089B
:10017000C92C0008C92C0008C92C0008C92C00088B
:10018000C92C0008C92C0008C92C0008C92C00087B
:10019000C92C0008C92C0008C92C0008C92C00086B
:1001A000C92C0008C92C0008C92C0008C92C00085B
:1001B000C92C0008C92C0008C92C0008C92C00084B
:1001C000C92C0008C92C0008C92C0008C92C00083B
:1001D000C92C0008C92C0008C92C0008C92C00082B
:1001E000C92C0008C92C0008C92C0008C92C00081B
:1001F000C92C0008C92C0008C92C0008C92C00080B
:10020000C92C0008C92C0008C92C0008C92C0008FA
:10021000C92C0008C92C0008C92C0008C92C0008EA
:10022000C92C0008C92C0008C92C000800000000D7
:10023000C92C0008C92C000800000000C92C0008C7
:10024000C92C0008C92C0008C92C0008C92C0008BA
:10025000C92C0008C92C0008C92C0008C92C0008AA
:10026000C92C0008C92C0008C92C0008C92C00089A
:10027000C92C0008C92C0008C92C00080000000087
:10028000C92C0008C92C0008C92C00080000000077
:0802900000000000C92C000869
:100298000348044B834202D0034B03B1184770470D
:1002A8001000002010000020000000000548064B48
:1002B8001B1AD90F01EBA301491002D0034B03B15C
:1002C80018477047100000201000002000000000B0
:1002D80010B5064C237843B9FFF7DAFF044B13B186
:1002E8000448AFF300800123237010BD10000020E4
:1002F80000000000242D000808B5054B1BB1054976
:100308000548AFF30080BDE80840FFF7CFBF00BF46
:100318000000000014000020242D000872B6FEE73B
:1003280000B59FB04C2200210BA802F0EFFC202260
:10033800002103A802F0EAFC022002F0BFF8002323
:100348000093394BDA6A22F00102DA62DB6A03F0C1
:1003580001030093354B9A6942F440429A619B69C4
:1003680003F440430093009B304B9B6913F4005FF8
:10037800FAD02F4BD3F8F42042F00202C3F8F4204D
:10038800D3F8F43003F002030193019B0023029396
:10039800264B9A6942F440429A619B6903F44043B0
:1003A8000293214BDA6A42F00102DA62DB6A03F057
:1003B80001030293029B1D4B9B6913F4005FFAD063
:1003C80001230B934FF480330C930223149315935A
:1003D80005221692C022179218930F2219921A9387
:1003E80008231B9300231C931D930BA800F054FBB8
:1003F800B0B93F23039303230493002305930823F1
:1004080006934023079308934FF4806209920A9356
:10041800042103A800F094FF20B91FB05DF804FB85
:10042800FFF77CFFFFF77AFF0004005800480258E6
:100438000044025810B586B0554B5B6913F4003F71
:1004480013D1BFF34F8FBFF36F8F514B0022C3F807
:100458005022BFF34F8FBFF36F8F5A6942F40032B7
:100468005A61BFF34F8FBFF36F8F494B5B6913F42A
:10047800803F27D1464B0022C3F88420BFF34F8F1B
:10048800D3F88040C4F34E3000E01846C4F3C902E4
:1004980043F6E07303EA401343EA82733C49C1F828
:1004A80060321346013A002BF2D1431E0028ECD1EA
:1004B800BFF34F8F4B6943F480334B61BFF34F8FCA
:1004C800BFF36F8F02F04CF8FFF72AFF00F066F8D1
:1004D80000F0B2F800230193029303930493059369
:1004E800022301930123029301A92A4801F0D0FEB7
:1004F80000F040FA00F0DAF900B1FEE7002202212C
:10050800244801F0D5FF224B0022C3F88420BFF312
:100518004F8F5A6922F480325A61BFF34F8FD3F854
:100528008040C4F34E3000E01846C4F3C90243F6D5
:10053800E07303EA401343EA82731549C1F8743241
:100548001346013A002BF2D1431E0028ECD1BFF329
:100558004F8FBFF36F8FBFF34F8FBFF36F8F4A6912
:1005680022F400324A610022C1F85022BFF34F8FB3
:10057800BFF36F8F4FF0E0231A614FF010425368BA
:1005880005490B60126882F308889847FEE700BFA8
:1005980000ED00E0000002582C00002086B0254B3A
:1005A800D3F8E02042F01002C3F8E020D3F8E020AE
:1005B80002F010020092009AD3F8E02042F0040200
:1005C800C3F8E020D3F8E02002F004020192019A77
:1005D800D3F8E02042F08002C3F8E020D3F8E0200E
:1005E80002F080020292029AD3F8E02042F002025E
:1005F800C3F8E020D3F8E02002F002020392039A45
:10060800D3F8E02042F00802C3F8E020D3F8E02055
:1006180002F008020492049AD3F8E02042F00102A2
:10062800C3F8E020D3F8E03003F001030593059BFD
:1006380006B070470044025808B50A480A4B0360E0
:100648000423436083600023C36016220261436170
:100658008361C361036202F053FA00B908BDFFF772
:100668005DFEFBE730000020005000522DE9F0410C
:10067800BAB00446002135913691379138913991B5
:10068800C02204A802F042FB22683B4B9A4202D0E7
:100698003AB0BDE8F0814FF000720023CDE90423A1
:1006A80004A801F09FF8002863D1344BD3F8D42074
:1006B80042F48042C3F8D420D3F8D42002F4804214
:1006C8000092009AD3F8E02042F01002C3F8E0202C
:1006D800D3F8E02002F010020192019AD3F8E0204A
:1006E80042F00202C3F8E020D3F8E02002F0020250
:1006F8000292029AD3F8E02042F00802C3F8E02000
:10070800D3F8E03003F008030393039B4FF0040889
:10071800CDF8D480022636960025379503243894E0
:100728000927399735A9164801F0B2FDCDF8D480CC
:100738003696379538943997DFF84C8035A9404676
:1007480001F0A6FD4FF460533593369637953894EB
:10075800399735A90B4801F09BFD40233593369610
:10076800379538940A23399335A9404601F090FD0E
:100778008EE7FFF7D3FD98E7005000520044025877
:1007880000100258000C02580004025810B590B02E
:100798003822002102A802F0B9FA4FF480730893B6
:1007A800352302934FF080730B9301230C9341F28E
:1007B800883202A93C4802F02DF8044610B12046C0
:1007C80010B010BD41F288320DF10701364802F031
:1007D800D9F804460028F2D100230B935023029342
:1007E80041F2883202A9304802F014F80028E6D114
:1007F8004FF080730B93312302939DF8073043F039
:1008080002038DF8073041F2883202A9264802F027
:1008180001F80028D3D141F288320DF107012248AE
:1008280002F047F80028CAD14FF4807308931523C3
:100838000293002309930A934FF080720B92079357
:100848000D930E930F9301230C9341F2883202A962
:10085800154801F0DFFF04460028B0D141F2883284
:100868000DF10701104802F08DF804460028A6D1C2
:10087800112302939DF8073023F060038DF80730A9
:1008880041F2883202A9084801F0C4FF002896D135
:1008980041F288320DF10701034802F00AF80028F6
:1008A8008DD104468BE700BF3000002000B591B021
:1008B8004FF480730893EB2302934FF4005305938E
:1008C8004FF440630993002303934FF440420A9284
:1008D800FF220492012206920D930E930F934FF07C
:1008E80040720B920C9304220792019300936A467C
:1008F80002A9044802F0B5F810B911B05DF804FB7C
:100908000120FAE73000002000B58FB0382200211E
:10091800684602F0FBF94FF4807306936623009350
:1009280041F288326946114801F074FF10B10FB0E6
:100938005DF804FB4FF4807306939923009300231A
:1009480007930893099305930B930C930D9341F226
:1009580088326946054801F05DFF034610B1E6E7B5
:1009680000BF0133024A9342FAD9E0E73000002081
:100978001FA1070008B5FFF7C7FF08B1012008BD90
:10098800FFF704FF0028FAD00120F8E7FEE7FEE7AA
:10099800FEE7FEE7FEE770477047704708B501F0CD
:1009A8000DFE08BD82B0074BD3F8F42042F00202D6
:1009B800C3F8F420D3F8F43003F002030193019B49
:1009C80002B0704700440258002804DB0901C9B28C
:1009D800044B1954704700F00F000901C9B2024BCB
:1009E8001954704700E400E014ED00E000B500F091
:1009F8000700C0F1070CBCF1040F28BF4FF0040C2E
:100A0800031D062B0FD9C31E4FF0FF3E0EFA0CF044
:100A180021EA000199400EFA03FE22EA0E0241EA99
:100A280002005DF804FB0023EEE700000649CB68EE
:100A380023F4E0631B041B0C000200F4E060034392
:100A4800024A1A43CA60704700ED00E00000FA0548
:100A580010B50446054BD868C0F30220FFF7C6FF5F
:100A680001462046FFF7B0FF10BD00BF00ED00E0D3
:100A78000138B0F1807F0BD24FF0E0235861054A6E
:100A8800F02182F823100020986107221A6170472C
:100A98000120704700ED00E0002800F0398338B5E8
:100AA8000446036813F0010F25D0944A136903F034
:100AB8003803926A102B15D0182B0FD06368B3F542
:100AC800803F3FD0002B53D18C4B1A6822F48032E0
:100AD8001A601A6822F480221A6038E002F00302D1
:100AE800022AEBD1854B1B6813F4003F03D06368DF
:100AF800002B00F00F83236813F0020F00F0A18091
:100B08007E4A1369926A13F038035AD0182B55D0CD
:100B1800E368002B00F0DE8078490A6822F01902A9
:100B280013430B6001F056FD0546744B1B6813F028
:100B3800040F40F0AD8001F04DFD401B0228F4D9B0
:100B48000320EEE26D4A136843F480331360636850
:100B58002BB301F03FFD0546684B1B6813F4003FBB
:100B6800C9D101F037FD401B6428F5D90320D8E22C
:100B7800B3F5A02F09D0614B1A6822F480321A60AD
:100B88001A6822F480221A60E1E75C4B1A6842F482
:100B980080221A601A6842F480321A60D7E701F09E
:100BA80019FD0546554B1B6813F4003FA3D001F00F
:100BB80011FD401B6428F5D90320B2E212F0030F9F
:100BC800A6D14E4B1B6813F0040F03D0E368002B2B
:100BD80000F0A282494A136823F01903E1680B4325
:100BE800136001F0F7FC0546444B1B6813F0040F33
:100BF80006D101F0EFFC401B0228F5D9032090E252
:100C080001F0EEFC41F20303984212D82269402A0F
:100C180007D03A494B6823F47C3343EA02334B60EC
:100C28000FE0364A536823F47C3343F400335360AF
:100C380007E0324A536823F0FE43216943EA01631F
:100C48005360236813F0100F00F088802B4A136953
:100C580003F03803926A082B56D0182B50D0E3695A
:100C6800002B00F0B880254A136843F08003136016
:100C780001F0B0FC0546214B1B6813F4807F40F05F
:100C8800888001F0A7FC401B0228F4D9032048E221
:100C980001F0A6FC41F20303984212D82269402AC7
:100CA80007D016494B6823F47C3343EA02334B6080
:100CB800C7E7124A536823F47C3343F40033536084
:100CC800BFE70E4A536823F0FE43216943EA0163F4
:100CD8005360B6E7094A136823F00103136001F073
:100CE80079FC0546054B1B6813F0040FA9D001F0E9
:100CF80071FC401B0228F5D9032012E20044025877
:100D080002F00302012AAAD1A14B1B6813F4807FC9
:100D180003D0E369802B40F0018201F061FC41F2CD
:100D28000303984212D8226A202A07D098494B68B0
:100D380023F0F84343EA82634B600FE0944A536818
:100D480023F0F84343F08043536007E0904AD368A8
:100D580023F07C53216A43EA0163D360236813F0CC
:100D6800080F60D06369002B49D0894A536F43F05C
:100D78000103536701F02EFC0546854B5B6F13F0AA
:100D8800020F50D101F026FC401B0228F5D90320A0
:100D9800C7E101F025FC41F20303984212D8226A08
:100DA800202A07D07A494B6823F0F84343EA826344
:100DB8004B60D3E7764A536823F0F84343F0804307
:100DC8005360CBE7724AD36823F07C53216A43EA25
:100DD8000163D360C2E76E4A136823F0800313608F
:100DE80001F0F8FB05466A4B1B6813F4807FB5D009
:100DF80001F0F0FB401B0228F5D9032091E1644A79
:100E0800536F23F00103536701F0E4FB0546604B81
:100E18005B6F13F0020F06D001F0DCFB401B0228C9
:100E2800F5D903207DE1236813F0200F29D0A369A9
:100E38009BB1574A136843F48053136001F0CAFB0F
:100E48000546534B1B6813F4005F1AD101F0C2FB2F
:100E5800401B0228F5D9032063E14D4A136823F4A7
:100E68008053136001F0B6FB0546494B1B6813F429
:100E7800005F06D001F0AEFB401B0228F5D9032025
:100E88004FE1236813F0040F21D1636A002B00F0AF
:100E980047813F4A126902F03802182A00F0EE80B2
:100EA800022B79D03A4A136823F08073136001F05B
:100EB80091FB0446364B1B6813F0007F00F0DC8082
:100EC80001F088FB001B0228F4D9032029E1314AEC
:100ED800136843F48073136001F07CFB05462D4BC7
:100EE8001B6813F4807F06D101F074FB401B642853
:100EF800F5D9032015E1A368012B0AD00BBB244BBD
:100F08001A6F22F001021A671A6F22F004021A6798
:100F180004E01F4A136F43F001031367A36833B358
:100F280001F058FB05461A4B1B6F13F0020FACD1AA
:100F380001F050FB401B41F288339842F3D903205B
:100F4800EFE0052B09D0124B1A6F22F001021A6745
:100F58001A6F22F004021A67E0E70D4B1A6F42F08D
:100F680004021A671A6F42F001021A67D6E701F005
:100F780031FB0546064B1B6F13F0020F85D001F0BD
:100F880029FB401B41F288339842F3D90320C8E07B
:100F98000044025800480258694A136823F08073D5
:100FA800136001F017FB0546654B1B6813F0007FC3
:100FB80006D001F00FFB401B0228F5D90320B0E052
:100FC8005F4B996A5F4A0A40A16AE06A41EA0011E8
:100FD8000A439A62226B013AC2F30802616B013933
:100FE800490289B20A43A16B0139090401F4FE01DF
:100FF8000A43E16B0139090601F0FE410A431A630D
:10100800DA6A22F00102DA625A6B6FF3CF02A16C3E
:1010180042EAC1025A63DA6A22F00C02216C0A43DE
:10102800DA62DA6A22F00202616C0A43DA62DA6A88
:1010380042F48032DA62DA6A42F40032DA62DA6A58
:1010480042F48022DA62DA6A42F00102DA621A684D
:1010580042F080721A6001F0BDFA0446384B1B68F2
:1010680013F0007F06D101F0B5FA001B0228F5D96C
:10107800032056E0002054E0002052E0304A916AF4
:10108800106B012B4ED001F00303A26A93424BD19F
:10109800C1F30511E36A994248D1C0F30802236BF2
:1010A800013B9A4244D1C0F34622636B013B9A420A
:1010B80040D1C0F30642A36B013B9A423CD1C0F336
:1010C8000660E36B013B984238D11D4B5B6BC3F361
:1010D800CC03A26C9A4201D1002022E0184AD36ABC
:1010E80023F00103D36201F075FA054601F072FAA4
:1010F800A842FBD0124A536B6FF3CF03A16C43EAAB
:10110800C1035363D36A43F00103D362002008E0AC
:1011180001207047012004E0012002E0012000E0E6
:10112800002038BD0120FCE70120FAE70120F8E79C
:101138000120F6E70120F4E70120F2E70120F0E7BB
:10114800004402580CFCFFFF754B1B6903F0380381
:10115800102B00F0DE80182B0FD0002B40F0DB8026
:101168006F4B1B6813F0200F00F0D7806C4B1B6887
:10117800C3F3C1036B48D840704710B4684B9A6AF0
:1011880002F003029C6AC4F30510D96A01F0010158
:101198005B6BC3F3CC0301FB03F307EE903AF8EE65
:1011A800677A14F47C7F77D0012A4AD0022A76D055
:1011B800002A40F091805A4B1B6813F0200F23D06F
:1011C80057490A68C2F3C102564BD34007EE103A9A
:1011D800F8EE476A07EE100AB8EE476A86EE867A96
:1011E8000B6BC3F3080306EE903AF8EE666A9FEDC0
:1011F8004E6A67EE867A76EEA77AF7EE006A77EEA1
:10120800A67A27EE277A38E007EE100AF8EE476A42
:101218009FED466A86EE267A414B1B6BC3F30803A3
:1012280006EE903AF8EE666A9FED3F6A67EE867AB8
:1012380076EEA77AF7EE006A77EEA67A27EE277A97
:101248001BE007EE100AF8EE476A9FED396A86EE52
:10125800267A334B1B6BC3F3080306EE903AF8EE7D
:10126800666A9FED316A67EE867A76EEA77AF7EEC0
:10127800006A77EEA67A27EE277A294B1B6BC3F311
:101288004623013307EE903AF8EE677AC7EE276AED
:10129800FCEEE67A17EE900A5DF8044B704707EE0D
:1012A800100AF8EE476A9FED236A86EE267A1C4BF1
:1012B8001B6BC3F3080306EE903AF8EE666A9FEDDF
:1012C8001A6A67EE867A76EEA77AF7EE006A77EE04
:1012D800A67A27EE277AD0E707EE100AF8EE476AD3
:1012E8009FED136A86EE267A0D4B1B6BC3F308033A
:1012F80006EE903AF8EE666A9FED0B6A67EE867A1C
:1013080076EEA77AF7EE006A77EEA67A27EE277AC6
:10131800B3E709487047094870470248704700BF5B
:10132800004402580090D003000000390024744C97
:101338000024744A20BCBE4B40787D0100093D0062
:10134800002800F0328170B50D4604469B4B1B689F
:1013580003F00F038B420BD2984A136823F00F0354
:101368000B431360136803F00F038B4240F01F8197
:10137800236813F0040F0CD02269914B9B6903F08A
:1013880070039A4205D98E498B6923F070031A437A
:101398008A61236813F0080F0CD06269884BDB69F7
:1013A80003F070039A4205D98549CB6923F070038D
:1013B8001A43CA61236813F0100F0CD0A269804B3E
:1013C800DB6903F4E0639A4205D97D49CB6923F4CC
:1013D800E0631A43CA61236813F0200F0CD0E26956
:1013E800774B1B6A03F070039A4205D974490B6A5C
:1013F80023F070031A430A62236813F0020F0CD01B
:10140800E2686F4B9B6903F00F039A4205D96C4958
:101418008B6923F00F031A438A61236813F0010FC5
:1014280041D0674A936923F47063A1680B439361C1
:101438006368022B0AD0032B27D0012B2CD0604ADB
:10144800126812F0040F06D10120ADE0126812F400
:10145800003F00F0AE805A490A6922F007021343A0
:101468000B6101F0B7F80646554B1B6903F03803CA
:101478006268B3EBC20F16D001F0ACF8801B41F2E2
:1014880088339842F0D903208EE04D4A126812F052
:10149800007FE0D1012087E0494A126812F4807F7A
:1014A800D9D1012080E0236813F0020F0CD0E26844
:1014B800434B9B6903F00F039A4205D240498B695D
:1014C80023F00F031A438A613C4B1B6803F00F0398
:1014D800AB420AD9394A136823F00F032B43136030
:1014E800136803F00F03AB4265D1236813F0040FB0
:1014F8000CD02269324B9B6903F070039A4205D2E3
:101508002F498B6923F070031A438A61236813F00B
:10151800080F0CD062692A4BDB6903F070039A420A
:1015280005D22749CB6923F070031A43CA6123689F
:1015380013F0100F0CD0A269214BDB6903F4E063B0
:101548009A4205D21E49CB6923F4E0631A43CA6163
:10155800236813F0200F0CD0E269194B1B6A03F0C3
:1015680070039A4205D216490B6A23F070031A4396
:101578000A62FFF7E9FD12498B69C3F30323114A95
:10158800D35C03F01F03D8408B6903F00F03D35CCF
:1015980003F01F0320FA03F30B4A13600B4B186088
:1015A8000B4B186800F0B4FF70BD01207047012094
:1015B800FAE70120F8E70120F6E700BF0020005213
:1015C800004402583C2D0008080000200C000020B0
:1015D80004000020404B9B6A03F00303032B79D0DF
:1015E80070B505460E463C4A136823F080631360C5
:1015F80000F0F0FF0446384B1B6813F0006F06D06C
:1016080000F0E8FF031B022BF5D9032070BD324B15
:101618009A6A22F47C32296842EA01329A626A683C
:10162800013AC2F30802A9680139490289B20A439A
:10163800E9680139090401F4FE010A4329690139FD
:10164800090601F0FE410A439A63DA6A22F0C002F1
:1016580069690A43DA62DA6A22F02002A9690A4350
:10166800DA62DA6A22F01002DA62DA6B6FF3CF021A
:10167800E96942EAC102DA63DA6A42F01002DA6220
:10168800C6B91A46DB6A43F40023D362124A1368C8
:1016980043F08063136000F09DFF04460E4B1B6807
:1016A80013F0006F14D100F095FF001B0228F5D944
:1016B8000320ABE7012E05D0074AD36A43F4001391
:1016C800D362E3E7044AD36A43F48013D362DDE7C5
:1016D80000209BE70120704700440258404B9B6A5A
:1016E80003F00303032B79D070B505460E463C4A38
:1016F800136823F08053136000F06CFF0446384BE6
:101708001B6813F0005F06D000F064FF031B022B78
:10171800F5D9032070BD324B9A6A22F07C72296891
:1017280042EA01529A626A68013AC2F30802A96859
:101738000139490289B20A43E9680139090401F407
:10174800FE010A4329690139090601F0FE410A43ED
:101758001A64DA6A22F4406269690A43DA62DA6A68
:1017680022F40072A9690A43DA62DA6A22F4807202
:10177800DA625A6C6FF3CF02E96942EAC1025A642D
:10178800DA6A42F48072DA62C6B91A46DB6A43F44E
:101798008003D362124A136843F08053136000F049
:1017A80019FF04460E4B1B6813F0005F14D100F0BC
:1017B80011FF001B0228F5D90320ABE7012E05D045
:1017C800074AD36A43F08073D362E3E7044AD36AD3
:1017D80043F40003D362DDE700209BE70120704754
:1017E80000440258F8B50446036813F0006F30D07F
:1017F800836EB3F5001F26D00ED8ABB1B3F5801FAA
:1018080007D102210830FFF7E5FE054695B12E46BF
:1018180021E0012635461EE0B3F5401F01D1002521
:1018280008E00126354616E0984AD36A43F40033A7
:10183800D3620025954A136D23F44013A16E0B4320
:101848001365002607E002212830FFF747FF054609
:10185800DCE700263546236813F4807F14D0A36D97
:10186800042B31D8DFE803F0032229080800874A4F
:10187800D36A43F40033D3624DBB844A136D23F01B
:101888000703A16D0B431365236813F4007F38D059
:10189800E36D802B4AD01FD833B3402B19D10021D8
:1018A80004F10800FFF796FE054622E0002104F146
:1018B8000800FFF78FFE0546DEE7002104F1280047
:1018C800FFF70CFF0546D7E701263546DCE72E462D
:1018D800DAE70126354614E0C02B0AD0B3F5807F3D
:1018E80007D0012635460CE0684AD36A43F4003332
:1018F800D36215BB654A136D23F4E073E16D0B43A6
:101908001365236813F4806F3CD0D4F8A830B3F57E
:10191800800F2FD016D8F3B1B3F5001F0FD10021D7
:1019280004F10800FFF756FE054619E0002104F10E
:101938002800FFF7D3FE0546DBE72E46E1E7012640
:1019480035461FE0B3F5C00F0AD0B3F5000F07D036
:101958000126354616E04D4AD36A43F40033D36274
:101968007DB94A4A936D23F46003D4F8A8100B4359
:10197800936507E0002104F12800FFF7AFFE054654
:10198800EEE72E46236813F4006F2BD0D4F8AC3062
:10199800B3F1007F53D00DD8ABB1B3F1807F06D13E
:1019A800002104F10800FFF715FE054610E00126A6
:1019B800354617E0B3F1407F0AD0B3F1806F07D006
:1019C800012635460EE0314AD36A43F40033D36228
:1019D800002D3BD12D4A936D23F0E063D4F8AC1071
:1019E8000B439365236813F0007F13D0E36C202B1F
:1019F80036D030D833B1102B2AD1244AD36A43F4D5
:101A08000033D3629DBB214AD36C23F03003E16CD1
:101A18000B43D364236813F4805F47D0236EB3F578
:101A2800005F00F08D8027D893B3B3F5805F20D195
:101A3800002104F10800FFF7CDFD05462DE0002147
:101A480004F12800FFF74AFE0546C1E72E46C9E71C
:101A580001263546DEE7302BD4D001263546D9E7B6
:101A6800022104F10800FFF7B5FD0546CAE72E4636
:101A7800D0E70126354619E0B3F5405F0DD0B3F540
:101A8800804F0AD00126354610E000BF00440258B6
:101A9800774AD36A43F40033D362002D57D1744A8E
:101AA800136D23F4E043216E0B431365236813F48D
:101AB800005F17D0636EB3F5003F59D04CD843B1DF
:101AC800B3F5803F45D1012104F10800FFF782FDFD
:101AD8000546002D53D1664A136D23F4E023616E49
:101AE8000B431365236813F4804F19D0D4F8B03032
:101AF800B3F1005F54D047D843B1B3F1805F40D110
:101B0800012104F10800FFF765FD0546002D4ED1BF
:101B1800574A936D23F0E043D4F8B0100B43936514
:101B2800236813F4004F51D0236FB3F1805F40D086
:101B3800B3F1005F55D0002B40D00126354645E073
:101B4800002104F12800FFF7C9FD0546A5E72E4648
:101B5800ACE701263546C5E7B3F5802FB9D0B3F514
:101B6800A02FB6D0B3F5403FB3D001263546B9E72C
:101B7800012104F12800FFF7B1FD0546A9E72E462B
:101B8800B0E701263546CBE7B3F1804FBED0B3F1BD
:101B9800A04FBBD0B3F1405FB8D001263546BFE7B0
:101BA800012104F12800FFF799FD0546AEE72E460E
:101BB800B6E72F4AD36A43F40033D362C5B92C4A37
:101BC800136D23F04053216F0B431365236813F003
:101BD800807F1CD0A36C032B44D8DFE803F0100BE4
:101BE8003C10012104F10800FFF7F4FC0546E5E785
:101BF8002E46EBE71E4AD36A43F40033D362A5BBF3
:101C08001B4AD36C23F00303A16C0B43D3642368F2
:101C180013F4800F2ED1236813F0010F00F0A68073
:101C2800E36F282B00F2A080DFE803F08E9E9E9ED3
:101C38009E9E9E9E889E9E9E9E9E9E9E979E9E9ED9
:101C48009E9E9E9E8E9E9E9E9E9E9E9E8E9E9E9ECC
:101C58009E9E9E9E8E00022104F10800FFF7BAFCAA
:101C68000546CCE701263546D1E72E46CFE700BF2B
:101C780000440258584A136843F48073136000F014
:101C8800A9FC0746544B1B6813F4807F05D100F06C
:101C9800A1FCC01B6428F5D90325002D4AD14F4B60
:101CA8001B6FD4F8B420534013F4407F0CD04B4B37
:101CB8001A6F22F44072196F41F480311967196F55
:101CC80021F4803119671A67D4F8B430B3F5807FEE
:101CD80015D08DBBD4F8B43003F44072B2F5407F10
:101CE8001ED03E4A136923F47C5313613B490B6FA2
:101CF800D4F8B420C2F30B0213430B678BE700F050
:101D080069FC0746354B1B6F13F0020FE1D100F059
:101D180061FCC01B41F288339842F3D90325D8E708
:101D28002E48026922F47C522D4901EA1313134309
:101D38000361DBE72E466EE72E466CE7012104F1CE
:101D48000800FFF747FC0546E5B9244A536D23F020
:101D58003803E16F0B43536508E0012104F12800C3
:101D6800FFF7BCFC0546EFE701263546236813F06C
:101D7800020F17D0A36F052B29D8DFE803F00B0556
:101D8800210B0B0B2E46F1E7012104F10800FFF7A8
:101D980021FC0546F5B9114A536D23F00703A16FDD
:101DA8000B435365236813F0040F2CD0D4F89430F8
:101DB800052B00F2DC80DFE803F01B15D31B1B1B8F
:101DC800012104F12800FFF789FC0546E2E7012616
:101DD8003546E7E72E46E5E7004802580044025832
:101DE800CFFFFF00012104F10800FFF7F3FB0546D0
:101DF800002D40F0BF80B34A936D23F00703D4F859
:101E080094100B439365236813F0200F1DD0D4F86A
:101E18009030B3F1005F00F0C18000F2B0804BB1A8
:101E2800B3F1805F40F0A880002104F10800FFF7BB
:101E3800D1FB0546002D40F0B880A24A536D23F02F
:101E4800E043D4F890100B435365236813F0400F18
:101E58001DD0D4F89C30B3F5006F00F0BA8000F2C2
:101E6800A9804BB1B3F5806F40F0A180002104F147
:101E78000800FFF7AFFB0546002D40F0B180914AFE
:101E8800936D23F4E053D4F89C100B4393652368B7
:101E980013F0800F1DD0D4F8A030B3F5804F00F0B8
:101EA800B38000F2A2804BB1B3F5005F40F09A8096
:101EB800002104F10800FFF78DFB0546002D40F0D6
:101EC800AA80804A936D23F46043D4F8A0100B4392
:101ED8009365236813F0080F0DD0D4F88430B3F558
:101EE800805F00F09A80774A536D23F44053D4F80A
:101EF80084100B435365236813F0100F0DD0D4F8EA
:101F08009830B3F5807F00F092806E4A936D23F489
:101F18004073D4F898100B439365236813F4002F8B
:101F280000F09A80D4F8A430B3F5803F00F089809F
:101F3800B3F5003F08D0002B40F08A80002104F15F
:101F48000800FFF747FB0546002D40F084805D4AF6
:101F5800936D23F44033D4F8A4100B4393657BE0CE
:101F6800012104F12800FFF7B9FB054640E70126E7
:101F7800354648E72E4646E70126354665E7B3F17C
:101F8800804F3FF457AFB3F1A04F3FF453AFB3F1D5
:101F9800405F3FF44FAF0126354656E7022104F172
:101FA8002800FFF79BFB054644E72E464DE7012630
:101FB80035466CE7B3F5805F3FF45EAFB3F5A05FDD
:101FC8003FF45AAFB3F5406F3FF456AF012635469C
:101FD8005DE7022104F12800FFF780FB05464BE787
:101FE8002E4654E70126354673E7B3F5004F3FF414
:101FF80065AFB3F5204F3FF461AFB3F5C04F3FF481
:102008005DAF0126354664E7022104F12800FFF799
:1020180065FB054652E72E465BE7022104F12800DE
:10202800FFF75CFB00283FF45EAF01265BE7022167
:1020380004F12800FFF752FB00283FF466AF0126A1
:1020480063E7022104F12800FFF748FB05467BE718
:102058000126354600E02E46236813F4802F18D059
:10206800D4F88830B3F5001F1FD0B3F5401F07D050
:10207800B3F5801F20D1134AD36A43F40033D362E7
:10208800EDB9104A536D23F44013D4F888100B436C
:102098005365236813F4803F2CD0236DA3B1B3F5A7
:1020A800803F1FD00126354624E0012104F1280095
:1020B800FFF714FB0546E3E701263546E9E72E4618
:1020C800E7E700BF00440258704AD36A43F400337C
:1020D800D36275B96D4AD36C23F48033216D0B43F9
:1020E800D36407E0022104F10800FFF773FA0546FC
:1020F800EFE72E46236813F0005F11D1236813F42D
:10210800003F28D0D4F88030B3F5807F14D010D9A0
:10211800B3F5007F15D0B3F5407F12D001261AE041
:10212800022104F12800FFF7D9FA0028E6D0012699
:10213800E4E733B101260EE0544AD36A43F400338E
:10214800D362002D69D1514A536D23F44073D4F8FA
:1021580080100B435365236813F4801F06D04B4A45
:10216800136D23F00043616F0B431365236813F06D
:10217800805F07D0454A136923F48043D4F8B81028
:102188000B431361236813F4001F06D03F4A136DF5
:1021980023F08073E16E0B431365236813F0804FBF
:1021A80009D03A4B1A6922F400421A611A69D4F824
:1021B800BC100A431A612368002B06DA334AD36C31
:1021C80023F04053616D0B43D364236813F4000F6D
:1021D80007D02E4A536D23F44003D4F88C100B43D8
:1021E8005365636813F0010F19D1636813F0020F88
:1021F8001ED1636813F0040F23D1636813F0080F2E
:1022080028D1636813F0100F2DD1636813F0200FE5
:1022180032D106B101263046F8BD2E469BE7002193
:1022280004F10800FFF7D6F90028DED00646DCE7FF
:10223800012104F10800FFF7CDF90028D9D006469E
:10224800D7E7022104F10800FFF7C4F90028D4D029
:102258000646D2E7002104F12800FFF73FFA0028DC
:10226800CFD00646CDE7012104F12800FFF736FA62
:102278000028CAD00646C8E7022104F12800FFF763
:102288002DFA0028C5D00126C5E700BF0044025832
:10229800F0B583B000236BE085685E000324B4408A
:1022A80025EA0405CC68B4402C438460456825EAD7
:1022B8000C054C68C4F300149C402C43446069E04E
:1022C800DD08083550F8254003F0070C4FEA8C0C60
:1022D8004FF00F0E0EFA0CFE24EA0E0E0C6904FAEB
:1022E8000CF444EA0E0440F825406BE0092400E0B1
:1022F800002404FA0EF42C430CF1020C694D45F845
:102308002C404FF0B0442568D44325EA02064F68B4
:1023180017F4801F01D042EA05064FF0B0452E6041
:102328006D6804EA05064F6817F4001F01D042EAF9
:1023380005064FF0B0456E60D5F8845004EA0506EE
:102348004F6817F4003F01D042EA05064FF0B04548
:10235800C5F88460D5F880502C404E6816F4803F4C
:1023680001D042EA05044FF0B042C2F88040013380
:102378000A6832FA03F400F092804FF0010C0CFA6C
:1023880003FC1CEA0202F2D04C6804F00304013C8E
:10239800012C81D94C6804F00304032C0CD0C468C8
:1023A8005D004FF0030C0CFA05FC24EA0C0C8C6859
:1023B800AC4044EA0C04C4604C6804F00304022CEA
:1023C8003FF47EAF04684FEA430E4FF0030C0CFA5B
:1023D8000EFC24EA0C0C4C6804F0030404FA0EF416
:1023E80044EA0C0404604C6814F4403FBFD02E4CFF
:1023F800D4F8F45045F00205C4F8F450D4F8F44089
:1024080004F002040194019C4FEA930C0CF10205BC
:10241800244C54F8255003F0030E4FEA8E0E0F2477
:1024280004FA0EF425EA0405204CA0423FF460AFFC
:1024380004F58064A04222D004F58064A04220D034
:1024480004F58064A0421ED004F58064A0421CD02C
:1024580004F58064A0421AD004F58064A04218D024
:1024680004F58064A04216D004F58064A04214D01C
:1024780004F58064A0423FF439AF0A2439E7012407
:1024880037E7022435E7032433E7042431E705243A
:102498002FE706242DE707242BE7082429E703B0B4
:1024A800F0BD00BF00040058004402580000025864
:1024B8000AB181617047090481617047134BDB6879
:1024C80013F0040F07D1114BDB6803F007038342B5
:1024D8001AD00120704710B50C4AD36823F00703BF
:1024E8000343D36000F076F80446084B5B6813F4A6
:1024F800005F07D100F06EF8001BB0F57A7FF4D9C1
:10250800012000E0002010BD00207047004802585C
:10251800104B1B780BB90120704710B504464FF4D7
:102528007A70B0FBF3F30C4A1068B0FBF3F0FEF7D7
:102538009FFA68B90F2C01D901200AE00022214630
:102548004FF0FF30FEF784FA044B1C60002000E0D7
:10255800012010BD000000200C0000200400002015
:1025680010B50320FEF762FAFEF7EEFD0F498B69FE
:10257800C3F303230E4AD35C03F01F03D8408B69CF
:1025880003F00F03D35C03F01F0320FA03F3094A97
:102598001360094B18600F20FFF7BAFF10B1012430
:1025A800204610BD0446FEF7FDF9F9E7004402583D
:1025B8003C2D0008080000200C000020034B1B786D
:1025C800034A11680B441360704700BF00000020E5
:1025D8007C000020014B1868704700BF7C00002079
:1025E800014B1868000C70470010005CF0B44B6A8F
:1025F80033B1B2F1406F03D08B6A0468013B2361A9
:102608008C69002C6FD00E6A002E3BD003688C6852
:10261800DC61CC69F4B1CB6A0D6B2B434D6B2B435A
:102628004D6A2B434D6943EA85430D692B430D6A77
:102638002B43CD682B4323438C6923430C682343E6
:10264800046813436361B2F1406F19D003684A68A4
:102658009A6115E0CB6A0D6B2B434D6B2B434D6A8A
:102668002B434D6943EA85430D692B430D6A2B4380
:1026780023438C69234309680B43016813434B6167
:10268800F0BC7047CD69D5B1CB6A0F6B3B434F6B3C
:102698003B434F6A3B434F6943EA87433343CE6822
:1026A80033432B4323430C68234304681343636178
:1026B800B2F1406FE4D003684A689A61E0E7CB6AF8
:1026C8000F6B3B434F6B3B434F6A3B434F6943EAB6
:1026D80087431E4345EA0603234309680B43016801
:1026E80013434B61CCE70D6A002D36D003688C6824
:1026F800DC61CC69E4B1CB6A0D6B2B434D6B2B438A
:102708004D6A2B434D6943EA85430D692B430D6A96
:102718002B43CD682B4323438C692343046813431D
:102728006361B2F1406FABD003684A689A61A7E76A
:10273800CB6A0D6B2B434D6B2B434D6A2B434D6975
:1027480043EA85430D692B430D6A2B431C438B6970
:102758001C43036814435C6192E7CE69CEB1CB6A2F
:102768000F6B3B434F6B3B434F6A3B434F6943EA15
:1027780087432B43CD682B433343234304681343D8
:102788006361B2F1406F3FF47BAF03684A689A61B6
:1027980076E7D1F824C0BCF1000F3FF471AFCB6AE3
:1027A8000F6B3B434F6B3B434CEA03074B6947EACC
:1027B80083473D432E433443036814435C615FE71A
:1027C8002DE9F84305460F4616469946DDF8208060
:1027D8002C68A4683C4214BF4FF0010C4FF0000C69
:1027E800B44514D0B8F1FF3FF2D0FFF7F3FEA0EBE9
:1027F8000900404502D8B8F1000FE9D1042385F853
:1028080041306B6C43F001036B64012000E0002051
:10281800BDE8F8832DE9F04182B004460F4616461C
:10282800FFF7D8FE94F840C05FFA8CFCBCF1010FAA
:102838003CD00546012384F8403094F841C05FFA43
:102848008CFC9C4508D04FF00208002384F84030E7
:10285800404602B0BDE8F08100226264022384F899
:1028680041300096034620212046FFF7A9FF804605
:102878000028EAD1002239462046FFF7B7FE7B6AD6
:102888001BB1012384F84130DFE700962B46012273
:1028980002212046FFF794FF80460028D5D12368FF
:1028A8000222DA60012384F84130CEE74FF00208B3
:1028B800CEE72DE9F04383B0044689461746FFF773
:1028C80089FED4F8008094F84030DBB2012B57D051
:1028D8000646012384F8403094F84150EDB29D42F9
:1028E80007D00225002384F84030284603B0BDE80D
:1028F800F08300236364B9F1000F3CD0122384F8FD
:102908004130D8F810300133E362D8F81030013381
:10291800A362C4F82490D8F8143023F04063C8F8B0
:1029280014300025E36A9BB1009733460122042145
:102938002046FFF745FF054650B9636A1B7888F8BB
:102948002030616A01316162E16A0139E162E9E7D7
:102958001DB1012384F84130C4E7009733460122B2
:1029680002212046FFF72CFF05460028F1D12368F5
:102978000222DA60EDE7636C43F008036364B1E7B1
:102988000225B2E72DE9F04383B00446894617468D
:10299800FFF720FED4F80080D8F8182094F84030CB
:1029A800DBB2012B5BD00646012384F8403094F853
:1029B8004150EDB29D4207D00225002384F84030F3
:1029C800284603B0BDE8F08300236364B9F1000F23
:1029D80040D0222384F84130D8F810300133A36363
:1029E800D8F8103001336363C4F83090D8F8143045
:1029F80023F0406343F08063C8F8143023689A6179
:102A08000025A36B9BB1009733460122062120467F
:102A1800FFF7D6FE054650B9236B98F820201A70A8
:102A2800216B01312163A16B0139A163E9E71DB174
:102A3800012384F84130C0E7009733460122022180
:102A48002046FFF7BDFE05460028F1D12368022283
:102A5800DA60EDE7636C43F008036364ADE70225D1
:102A6800AEE7F0B583B004460E461546FFF7B2FD53
:102A780094F840C05FFA8CFCBCF1010F3BD00123F5
:102A880084F8403094F841C05FFA8CFC9C4506D02D
:102A98000227002384F84030384603B0F0BD0022F6
:102AA8006264822384F84130A36C0093034620219A
:102AB8002046FFF785FE07460028EAD122681368FA
:102AC80023F0080369680B4313606B68082B06D072
:102AD8004FF0406231462046FFF788FDD9E723686A
:102AE8002A681A6323681022DA602268136843F49C
:102AF80080131360ECE70227CEE78164704700007B
:102B080070B582B00446FFF765FD002C45D0064637
:102B180094F84130002B37D025682A6822F4F852FF
:102B2800A168013942EA01222A60A36C0093334666
:102B3800002220212046FFF743FE18BB21680B68BE
:102B4800174A1A406568E36843EA0563E5692B4359
:102B5800256A2B431A430A6021684A68114B1340BF
:102B68002569626942EA0542A5692A4313434B6015
:102B78002268136843F00103136000236364012390
:102B880084F8413002B070BD2046FDF76FFD41F278
:102B980088312046FFF7B1FFBEE70120F2E700BF0A
:102BA8002FFFFF00FEF8E0FF274AD2F8883043F4F1
:102BB8007003C2F88830254B1B6803F00F03062BFF
:102BC80006D8224A136823F00F0343F00703136063
:102BD8001F4B1A6842F001021A6000221A61196834
:102BE8001C4A0A401A60194B1B6813F0080F06D0DC
:102BF800164A136823F00F0343F007031360144BBE
:102C080000229A61DA611A62134999621349D962FA
:102C1800134919635A639963DA6319645A64196822
:102C280021F4802119601A660E4B1B686FF30F039D
:102C3800B3F1005F03D20C4B0122C3F808210B4B00
:102C480043F2D2021A60704700ED00E00020005203
:102C5800004402587FEDF6EA000202020000FF017C
:102C6800800201010010005C008000510040005209
:102C7800DFF834D0FFF798FF0C480D490D4A0023C0
:102C880002E0D458C4500433C4188C42F9D30A4A19
:102C98000A4C002301E013600432A242FBD300F087
:102CA80011F8FDF7C7FB7047000002200000002064
:102CB80010000020542D0008100000208000002083
:102CC800FEE7000070B50D4D0D4C641BA4100026E6
:102CD800A64209D10B4D0C4C00F020F8641BA4103F
:102CE8000026A64205D170BD55F8043B9847013629
:102CF800EEE755F8043B98470136F2E74C2D0008FB
:102D08004C2D00084C2D0008502D000802440346A5
:102D1800934200D1704703F8011BF9E7F8B500BFEB
:102D2800F8BC08BC9E467047F8B500BFF8BC08BCA4
:042D38009E467047FC
:102D3C000000000001020304010203040607080955
:042D4C000103000877
:042D5000D90200089C
:102D540001000000100000000090D0030090D00398
:0400000508002C794A
:00000001FF
